S00D0000426C696E642E737265632E
S113000012C02CC0E6C02AC029C028C027C026C000
S113001025C025C023C022C021C020C01FC01EC0CF
S11300201DC01CC01BC011241FBECFE5D4E0DEBF21
S1130030CDBF10E0A0E6B0E0E4E4F4E002C0059037
S11300400D92A036B107D9F710E0A0E6B0E001C0E8
S11300501D92A137B107E1F785D0F2C1D1CF1F922C
S11300600F920FB60F9211242F938F939F93AF93F8
S1130070BF93809165008823D9F1809160009091AD
S11300806100A0916200B09163000196A11DB11DB1
S11300908093600090936100A0936200B09363002A
S11300A08091600090916100A0916200B091630022
S11300B022B7BA2FA92F982F8827820F911DA11D2F
S11300C0B11D81302FE9920724E2A20720E0B20794
S11300D078F010926500109264008FEF9FEFDC01BE
S11300E08093660090936700A0936800B0936900C2
S11300F0BF91AF919F918F912F910F900FBE0F9051
S11301001F90189582BB9098919A87EB9BE001977A
S1130110F1F700C0000091980895CF93C82F807F15
S1130120F1DF8C2F8295807FEDDFCF91089582E0FF
S1130130F4DF88E2F2DF8CE0F0DF86E0EEDF83E8D4
S1130140ECDF089515BA84E08A95F1F781E085BB68
S11301508093640088E28A95F1F715BA8FEF81BB2A
S1130160E6DF089581E084BB15BA95B7946095BF26
S11301709BB790689BBF83BF12BE89BF78948FEEF4
S113018090E00197F1F700C000008091640088239B
S1130190E1F78FEB94EDA1E081509040A040E1F7AE
S11301A000C00000CFDFF1CF82BB909A919A87EB19
S11301B09BE00197F1F700C0000091980895CF9358
S11301C0C82F807FF1DF8C2F8295807FEDDFCF9168
S11301D008951F920F920FB60F921124CF92DF92BF
S11301E0EF92FF922F933F934F935F936F937F937D
S11301F08F939F93AF93BF93CF93DF93EF93FF932B
S113020080916400882309F4C7C080916500882325
S113021069F481E08093650010926000109261009F
S1130220109262001092630012BEB6C01092650074
S11302308091600090916100A0916200B091630090
S113024022B76627782F892F9A2F620F711D811D7F
S1130250911D2AE330E040E050E0B5D020936600E1
S11302603093670040936800509369008091660062
S113027090916700A0916800B0916900883E23E0E6
S1130280920720E0A20720E0B2070CF051C0609171
S113029066007091670080916800909169000F2E4C
S11302A0F4E6CF2EF0E0DF2EF0E0EF2EF0E0FF2EAC
S11302B0F02DA7019601A9D0205D20936C006091D8
S11302C06600709167008091680090916900A701B1
S11302D096019BD00F2EFAE0CF2EF0E0DF2EF0E057
S11302E0EF2EF0E0FF2EF02DA70196018ED0205DB9
S11302F020936D00609166007091670080916800A2
S113030090916900A701960180D0605D60936E00B2
S113031083E680936F008DE6809370008FE799EAFF
S1130320A3E081509040A040E1F700C0000009C064
S113033086E680936C0081E680936D0082E780936B
S11303406E0010926B0010926A0080916C008823FA
S113035009F180E090E0CCE6D0E08C0F9D1FDC0139
S11303608C912DDF8FEF92E5A7E081509040A04063
S1130370E1F700C0000080916A0090916B00019643
S113038090936B0080936A00FE01E80FF91F2081AF
S1130390222319F710926400FF91EF91DF91CF911E
S11303A0BF91AF919F918F917F916F915F914F9189
S11303B03F912F91FF90EF90DF90CF900F900FBE61
S11303C00F901F901895A1E21A2EAA1BBB1BFD01CA
S11303D00DC0AA1FBB1FEE1FFF1FA217B307E40720
S11303E0F50720F0A21BB30BE40BF50B661F771F78
S11303F0881F991F1A9469F7609570958095909558
S11304009B01AC01BD01CF01089597FB092E052680
S11304100ED057FD04D0D7DF0AD0001C38F4509515
S11304204095309521953F4F4F4F5F4F0895F6F714
S113043090958095709561957F4F8F4F9F4F08954C
S1070440F894FFCF5A
S9030000FC
